:100000000C9435000C945D000C945D000C945D0024
:100010000C945D000C945D000C945D000C945D00EC
:100020000C945D000C945D000C945D000C945D00DC
:100030000C945D000C945D000C945D000C945D00CC
:100040000C94A3000C945D000C941A020C945D02B5
:100050000C945D000C945D000C945D000C945D00AC
:100060000C945D000C945D00200311241FBECFEFA3
:10007000D8E0DEBFCDBF11E0A0E0B1E0E4E0F8E001
:1000800002C005900D92A231B107D9F721E0A2E19B
:10009000B1E001C01D92A93EB207E1F710E0C5E34F
:1000A000D0E004C02197FE010E94FA03C433D107B7
:1000B000C9F70E9473010C94A1030C94000040E066
:1000C00052EC61E070E08FE391E00C949802CF93E2
:1000D000DF93C0E0D0E08FE391E00E94800118162A
:1000E00019064CF58FE391E00E94AC01FE01E85E39
:1000F000FE4FCF31D10514F48A32D1F4108260E082
:1001000071E088E191E00E94A4030E948303909330
:1001100015018093140160E071E080E090E00E949E
:10012000A4030E9483039093170180931601D3CFF9
:1001300080832196D0CF62E070E080E090E0DF9194
:10014000CF910C9412011F920F920FB60F921124AF
:100150002F933F938F939F93AF93BF9380913701DA
:1001600090913801A0913901B0913A013091360156
:1001700023E0230F2D3720F40196A11DB11D05C0EA
:1001800026E8230F0296A11DB11D2093360180930E
:10019000370190933801A0933901B0933A018091CF
:1001A0003B0190913C01A0913D01B0913E0101962F
:1001B000A11DB11D80933B0190933C01A0933D0193
:1001C000B0933E01BF91AF919F918F913F912F913D
:1001D0000F900FBE0F901F9018953FB7F894809125
:1001E0003B0190913C01A0913D01B0913E0126B5AB
:1001F000A89B05C02F3F19F00196A11DB11D3FBF5F
:10020000BA2FA92F982F8827820F911DA11DB11DEC
:10021000BC01CD0142E0660F771F881F991F4A95E8
:10022000D1F70895CF92DF92EF92FF92CF93DF93B1
:100230006B017C010E94ED00EB01C114D104E104CB
:10024000F10479F00E94ED006C1B7D0B683E734059
:10025000A0F381E0C81AD108E108F108C851DC4FC9
:10026000ECCFDF91CF91FF90EF90DF90CF9008958A
:10027000789484B5826084BD84B5816084BD85B581
:10028000826085BD85B5816085BDEEE6F0E0808148
:1002900081608083E1E8F0E0108280818260808369
:1002A000808181608083E0E8F0E0808181608083EC
:1002B000E1EBF0E0808184608083E0EBF0E080811E
:1002C00081608083EAE7F0E08081846080838081C0
:1002D0008260808380818160808380818068808368
:1002E0001092C10008950E9438010E945F00C4E589
:1002F000D2E00E9467002097E1F30E945402F9CFF8
:10030000FC0124853585F901E05CFF4F80819181F6
:10031000329620813181821B930B8F739927089528
:10032000DC011C96ED91FC911D97DF01A05CBF4F95
:100330002D913C91119712968D919C9111972817B0
:10034000390739F08D919C91E80FF91F808190E079
:1003500008958FEF9FEF0895FC01A485B585FD01F9
:10036000E05CFF4F20813181329680819181281796
:10037000390779F080819181A80FB91F8C91208174
:1003800031812F5F3F4F2F7333273183208390E0DC
:1003900008958FEF9FEF0895FC0181A1882329F034
:1003A000A489B5898C9186FFFBCF11A208950F9384
:1003B0001F93CF93DF93FC01A685B7858D01005C69
:1003C0001F4FE8018881998101968F739927AD01AC
:1003D0004E5B5F4FEA012881398182179307D1F381
:1003E000E80128813981A20FB31F6C93A685B785D8
:1003F000A05CBF4F11969C938E93A689B7892C91D0
:1004000081E090E0078C02C0880F991F0A94E2F700
:10041000822B8C9381E081A30488F589E02D808173
:100420008064808381E090E0DF91CF911F910F91F4
:10043000089508951F920F920FB60F9211242F93D3
:100440004F935F938F939F93EF93FF938091C0009F
:1004500082FD1CC02091C6008091E5019091E601CB
:1004600001968F7399274091E7015091E801841715
:10047000950771F0E091E501F091E601EB55FE4F33
:1004800020839093E6018093E50102C08091C6002D
:10049000FF91EF919F918F915F914F912F910F90CD
:1004A0000FBE0F901F9018958FE391E00E9480017E
:1004B000892B11F00C94190208951F920F920FB618
:1004C0000F9211242F933F938F939F93EF93FF935A
:1004D0002091A1013091A2018091A3019091A401EA
:1004E0002817390731F48091C1008F7D8093C100B6
:1004F00014C0E091A301F091A401EF59FE4F2081B7
:100500008091A3019091A40101968F7399279093F4
:10051000A4018093A3012093C600FF91EF919F91C6
:100520008F913F912F910F900FBE0F901F901895B4
:10053000CF92DF92EF92FF920F931F93CF93DF93AF
:10054000EC016A017B014115514E6105710509F10C
:10055000EC89FD8981E090E008A002C0880F991F16
:100560000A94E2F7808360E079E08DE390E0A701F0
:1005700096010E94D80389019A01015011092109AD
:100580003109369527951795079598010115104162
:10059000A8F0EC89FD89108260E874E88EE190E0B3
:1005A000A70196010E94D803DA01C9010197A109A8
:1005B000B109B695A795979587959C01E889F98922
:1005C0003083EA89FB89208319A2EE89FF89408163
:1005D00081E090E09C010C8C02C0220F331F0A9432
:1005E000E2F7242B2083EE89FF8940819C010D8C4A
:1005F00002C0220F331F0A94E2F7242B2083EE89D6
:10060000FF8940819C010E8C02C0220F331F0A9487
:10061000E2F7242B2083EE89FF8920810F8C02C012
:10062000880F991F0A94E2F7809582238083DF91D7
:10063000CF911F910F91FF90EF90DF90CF90089591
:10064000EFE3F1E01382128288EE93E0A0E0B0E0E5
:1006500084839583A683B78386E091E0918380832A
:1006600085EA91E09587848781E691E09787868780
:1006700085EC90E0918B808B84EC90E0938B828B67
:1006800080EC90E0958B848B81EC90E0978B868B4F
:1006900082EC90E0918F808F86EC90E0938F828F38
:1006A00084E0848F83E0858F87E0868F85E0878F65
:1006B00081E080A30895CF92DF92EF92FF920F9393
:1006C0001F93CF93DF936C01EB017B01E40EF51ECA
:1006D00000E010E0CE15DF0561F06991D601ED91E3
:1006E000FC910190F081E02DC6010995080F191FBA
:1006F000F1CFC801DF91CF911F910F91FF90EF9043
:10070000DF90CF900895FC0188279927E8942191E4
:100710002032E9F3293010F02E30C8F32B3241F0AB
:100720002D3239F4689404C00E94D003820F911DC9
:10073000219120532A30C0F31EF4909581959F4F4C
:100740000895F8940C94000442E151E00E94A9033A
:100750000895FA01A191B081009719F41097E1F082
:10076000CD01DC01CD010D90002011F4C00113C0BA
:10077000FB012191222319F02015D9F7F3CFFB01BA
:100780002191201519F41E92119606C02223C1F75B
:100790000D900020A1F7D001FA01A193B083089534
:1007A0007AE0979F902D879F802D910D11240895B9
:1007B000A1E21A2EAA1BBB1BFD010DC0AA1FBB1F65
:1007C000EE1FFF1FA217B307E407F50720F0A21BD7
:1007D000B30BE40BF50B661F771F881F991F1A9444
:1007E00069F760957095809590959B01AC01BD016E
:1007F000CF010895EE0FFF1F0590F491E02D0994AD
:04080000F894FFCF9A
:100804002C0000000000D7015B038001AC019001C3
:02081400CC0115
:00000001FF
