:100000000C9463000C948B000C948B000C948B006C
:100010000C948B000C948B000C948B000C948B0034
:100020000C948B000C948B000C948B000C948B0024
:100030000C948B000C948B000C948B000C948B0014
:100040000C94C9010C948B000C945D040C94A004D6
:100050000C948B000C948B000C948B000C948B00F4
:100060000C948B000C948B00000000070002010030
:100070000003040600000000000000000102040864
:100080001020408001020408102001020408102002
:10009000040404040404040402020202020203032E
:1000A00003030303000000002300260029000000D2
:1000B0000000250028002B0000000000240027007D
:1000C0002A007901630511241FBECFEFD8E0DEBFFF
:1000D000CDBF11E0A0E0B1E0EAEDFCE002C0059088
:1000E0000D92A231B107D9F721E0A2E1B1E001C040
:1000F0001D92A13FB207E1F710E0C3E6D0E004C0D3
:100100002197FE010E946506C136D107C9F70E94FA
:10011000B6030C94E4050C940000FC0184E0808399
:1001200087E0818389E0838388E082838AE0848317
:100130008CE085838EE086838FE087830895CF935C
:10014000DF93EC0161E089810E94210361E08B81F2
:100150000E94210360E08E810E94210361E08A8178
:100160000E94210361E08C810E94210360E08F8165
:100170000E94210361E088810E94210361E088815F
:100180000E945D0360E08D810E9421038B81893094
:1001900079F48C818A3061F480EA8093800081E177
:1001A0008093810080E991E090938700809386009E
:1001B000DF91CF9108951F93CF93DF93EC0177FFE9
:1001C00005C071956195710911E001C010E06139B8
:1001D00081E0780714F060E971E02B81293041F467
:1001E0008C818A3029F470938900609388000DC057
:1001F00033E3369FC001379F900D112460E570E016
:100200000E941B06822F0E949902112311F061E0C7
:1002100001C060E08981DF91CF911F910C945D0353
:100220001F93CF93DF93EC0177FF05C07195619524
:10023000710911E001C010E0613981E0780714F024
:1002400060E971E08B81893041F48C818A3029F436
:1002500070938B0060938A000DC023E3269FC0013A
:10026000279F900D112460E570E00E941B068C8191
:100270000E949902112311F061E001C060E08A81BF
:10028000DF91CF911F910C945D03FC0185810E9449
:100290008D0321E0892B09F020E0822F089586E369
:1002A00091E00E9445018111FFCF08959B012157E4
:1002B0003E4F2F31334080F48130910529F486E39D
:1002C00091E00E94DB0006C0029721F486E391E0F2
:1002D0000E9410010C944F01089540E052EC61E03F
:1002E00070E087E491E00E94DB0486E391E00C94E7
:1002F0009F0086E391E00C948D001F93CF93DF93D2
:1003000010E0C0E0D0E087E491E00E94C30318163B
:10031000190654F587E491E00E94EF03FE01E85EC0
:10032000FE4FCF31D10514F48A32D9F4108260E047
:1003300071E088E191E00E94E7050E94C605909374
:1003400015018093140160E071E080E090E00E946C
:10035000E7050E94C605909317018093160111E0EE
:10036000D2CF80832196CFCF112351F06091160117
:100370007091170180911401909115010E9456010E
:1003800062E070E080E090E0DF91CF911F910C94EB
:1003900038021F920F920FB60F9211242F933F93A2
:1003A0008F939F93AF93BF9380913F0190914001B2
:1003B000A0914101B091420130913E0123E0230F11
:1003C0002D3720F40196A11DB11D05C026E8230F8D
:1003D0000296A11DB11D20933E0180933F01909391
:1003E0004001A0934101B09342018091430190915B
:1003F0004401A0914501B09146010196A11DB11D96
:100400008093430190934401A0934501B09346012A
:10041000BF91AF919F918F913F912F910F900FBE00
:100420000F901F9018953FB7F894809143019091D9
:100430004401A0914501B091460126B5A89B05C095
:100440002F3F19F00196A11DB11D3FBFBA2FA92F53
:10045000982F8827820F911DA11DB11DBC01CD01D0
:1004600042E0660F771F881F991F4A95D1F70895BC
:10047000CF92DF92EF92FF92CF93DF936B017C01DB
:100480000E941302EB01C114D104E104F10479F0DC
:100490000E9413026C1B7D0B683E7340A0F381E049
:1004A000C81AD108E108F108C851DC4FECCFDF9140
:1004B000CF91FF90EF90DF90CF900895789484B51E
:1004C000826084BD84B5816084BD85B5826085BD50
:1004D00085B5816085BDEEE6F0E080818160808336
:1004E000E1E8F0E010828081826080838081816019
:1004F0008083E0E8F0E0808181608083E1EBF0E0E0
:10050000808184608083E0EBF0E080818160808383
:10051000EAE7F0E08081846080838081826080836C
:100520008081816080838081806880831092C10097
:1005300008951F93CF93DF93182FEB0161E00E9482
:100540002103209711F460E004C0CF3FD10539F4B6
:1005500061E0812FDF91CF911F910C945D03E12F1A
:10056000F0E0E859FF4FE491E330F9F048F4E1306E
:10057000B9F0E230A1F584B5806284BDC8BD34C055
:10058000E630E9F0E73019F1E43049F58091800078
:10059000806280938000D0938B00C0938A0024C037
:1005A00084B5806884BDC7BD1FC08091800080680D
:1005B00080938000D0938900C093880015C08091FB
:1005C000B00080688093B000C093B3000DC08091EC
:1005D000B00080628093B000C093B40005C0C03802
:1005E000D1050CF0B5CFAFCFDF91CF911F9108951A
:1005F000833081F028F4813099F08230A1F00895A1
:100600008630A9F08730B9F08430D1F48091800031
:100610008F7D03C0809180008F7780938000089544
:1006200084B58F7702C084B58F7D84BD0895809195
:10063000B0008F7703C08091B0008F7D8093B000B1
:100640000895CF93DF9390E0FC01E458FF4F24918D
:10065000FC01E057FF4F8491882361F190E0880FFF
:10066000991FFC01E854FF4FC591D491FC01E2555C
:10067000FF4FA591B491611109C09FB7F89488818B
:10068000209582238883EC912E230BC0623061F485
:100690009FB7F8943881822F809583238883EC91CB
:1006A0002E2B2C939FBF06C08FB7F894E8812E2B7A
:1006B00028838FBFDF91CF9108951F93CF93DF934E
:1006C000282F30E0F901E859FF4F8491F901E458EF
:1006D000FF4FD491F901E057FF4FC491CC23C9F0EB
:1006E000162F81110E94F802EC2FF0E0EE0FFF1F91
:1006F000E255FF4FA591B4918FB7F894111105C041
:100700009C91ED2FE095E92302C0EC91ED2BEC9349
:100710008FBFDF91CF911F910895CF93DF93282F43
:1007200030E0F901E859FF4F8491F901E458FF4F97
:10073000D491F901E057FF4FC491CC2391F081117E
:100740000E94F802EC2FF0E0EE0FFF1FEC55FF4F78
:10075000A591B491EC91ED2381E090E021F480E04B
:1007600002C080E090E0DF91CF9108950E945E0288
:100770000E946D01C7E9D4E00E947D012097E1F35A
:100780000E949704F9CFFC0124853585F901E05CCE
:10079000FF4F80819181329620813181821B930BA2
:1007A0008F7399270895DC011C96ED91FC911D979C
:1007B000DF01A05CBF4F2D913C91119712968D9156
:1007C0009C9111972817390739F08D919C91E80F6A
:1007D000F91F808190E008958FEF9FEF0895FC014D
:1007E000A485B585FD01E05CFF4F20813181329603
:1007F000808191812817390779F080819181A80F34
:10080000B91F8C91208131812F5F3F4F2F73332788
:100810003183208390E008958FEF9FEF0895FC01CE
:1008200081A1882329F0A489B5898C9186FFFBCF0B
:1008300011A208950F931F93CF93DF93FC01A68518
:10084000B7858D01005C1F4FE80188819981019671
:100850008F739927AD014E5B5F4FEA012881398183
:1008600082179307D1F3E80128813981A20FB31FC2
:100870006C93A685B785A05CBF4F11969C938E9311
:10088000A689B7892C9181E090E0078C02C0880F7F
:10089000991F0A94E2F7822B8C9381E081A304884C
:1008A000F589E02D80818064808381E090E0DF9194
:1008B000CF911F910F91089508951F920F920FB637
:1008C0000F9211242F934F935F938F939F93EF93E6
:1008D000FF938091C00082FD1CC02091C6008091D2
:1008E000ED019091EE0101968F7399274091EF01F0
:1008F0005091F0018417950771F0E091ED01F091AE
:10090000EE01E355FE4F20839093EE018093ED01BD
:1009100002C08091C600FF91EF919F918F915F91EE
:100920004F912F910F900FBE0F901F90189587E455
:1009300091E00E94C303892B11F00C945C0408958C
:100940001F920F920FB60F9211242F933F938F9304
:100950009F93EF93FF932091A9013091AA01809179
:10096000AB019091AC012817390731F48091C10097
:100970008F7D8093C10014C0E091AB01F091AC0178
:10098000E759FE4F20818091AB019091AC01019617
:100990008F7399279093AC018093AB012093C6008D
:1009A000FF91EF919F918F913F912F910F900FBEEB
:1009B0000F901F901895CF92DF92EF92FF920F93B6
:1009C0001F93CF93DF93EC016A017B014115514ED8
:1009D0006105710509F1EC89FD8981E090E008A0CD
:1009E00002C0880F991F0A94E2F7808360E079E0E3
:1009F0008DE390E0A70196010E942F0689019A01DC
:100A00000150110921093109369527951795079548
:100A1000980101151041A8F0EC89FD89108260E869
:100A200074E88EE190E0A70196010E942F06DA019A
:100A3000C9010197A109B109B695A7959795879521
:100A40009C01E889F9893083EA89FB89208319A20E
:100A5000EE89FF89408181E090E09C010C8C02C00E
:100A6000220F331F0A94E2F7242B2083EE89FF899B
:100A700040819C010D8C02C0220F331F0A94E2F7C3
:100A8000242B2083EE89FF8940819C010E8C02C0BB
:100A9000220F331F0A94E2F7242B2083EE89FF896B
:100AA00020810F8C02C0880F991F0A94E2F780956D
:100AB00082238083DF91CF911F910F91FF90EF9060
:100AC000DF90CF900895E7E4F1E01382128288EE80
:100AD00093E0A0E0B0E084839583A683B78386E0AB
:100AE00091E0918380838DEA91E09587848789E600
:100AF00091E09787868785EC90E0918B808B84ECE2
:100B000090E0938B828B80EC90E0958B848B81ECD2
:100B100090E0978B868B82EC90E0918F808F86ECB3
:100B200090E0938F828F84E0848F83E0858F87E0CD
:100B3000868F85E0878F81E080A30895CF92DF9232
:100B4000EF92FF920F931F93CF93DF936C01EB0112
:100B50007B01E40EF51E00E010E0CE15DF0561F02C
:100B60006991D601ED91FC910190F081E02DC601D3
:100B70000995080F191FF1CFC801DF91CF911F917F
:100B80000F91FF90EF90DF90CF900895FC018827A0
:100B90009927E89421912032E9F3293010F02E3082
:100BA000C8F32B3241F02D3239F4689404C00E940E
:100BB0001306820F911D219120532A30C0F31EF499
:100BC000909581959F4F0895F8940C946B0642E19F
:100BD00051E00E94EC050895FA01A191B0810097BF
:100BE00019F41097E1F0CD01DC01CD010D9000204A
:100BF00011F4C00113C0FB012191222319F020152B
:100C0000D9F7F3CFFB012191201519F41E9211960B
:100C100006C02223C1F70D900020A1F7D001FA01F0
:100C2000A193B08308957AE0979F902D879F802DA0
:100C3000910D1124089597FB072E16F4009407D008
:100C400077FD09D00E94510607FC05D03EF490952F
:100C500081959F4F0895709561957F4F0895A1E20A
:100C60001A2EAA1BBB1BFD010DC0AA1FBB1FEE1F26
:100C7000FF1FA217B307E407F50720F0A21BB30B71
:100C8000E40BF50B661F771F881F991F1A9469F7ED
:100C900060957095809590959B01AC01BD01CF0149
:100CA0000895AA1BBB1B51E107C0AA1FBB1FA617B3
:100CB000B70710F0A61BB70B881F991F5A95A9F705
:100CC00080959095BC01CD010895EE0FFF1F059012
:0A0CD000F491E02D0994F894FFCF91
:100CDA002C00000000001A049E05C303EF03D3038F
:020CEA000F04F5
:00000001FF
